:100000000C942A000C94FF030C9430040C946104AB
:100010000C9447000C9447000C9447000C94470044
:100020000C9447000C9447000C94C9040C9492045F
:100030000C9447000C9410050C9447000C94470551
:100040000C9447000C9447000C9447000C94470014
:100050000C94470011241FBECFE5D8E0DEBFCDBF12
:1000600010E0A0E6B0E0E6E5FDE002C005900D92EC
:10007000A036B107D9F720E0A0E6B0E001C01D929C
:10008000AF39B207E1F70E9449000C94A9060C941D
:100090000000CF93DF93CDB7DEB7E8970FB6F894A3
:1000A000DEBF0FBECDBF6FEF80E00E948B036FEF0E
:1000B00081E00E948B036FEF80E00E94C50340E067
:1000C00060E080E00E94980240E060E081E00E94F1
:1000D000980240E061E081E00E94980240E062E026
:1000E00081E00E94980240E063E081E00E94980273
:1000F00080E090E0A0EAB0E489839A83AB83BC837C
:1001000020E030E04AE753E469817A818B819C8169
:100110000E943C06DC01CB018FA798ABA9ABBAAB20
:1001200020E030E040E85FE36FA578A989A99AA9AB
:100130000E948E0588232CF481E090E09CAB8BAB71
:100140003FC020E03FEF4FE757E46FA578A989A9AA
:100150009AA90E94370618164CF520E030E040E2DC
:1001600051E469817A818B819C810E943C06DC018B
:10017000CB01BC01CD010E949305DC01CB019CABFE
:100180008BAB0FC089E190E09EAB8DAB8DA99EA992
:100190000197F1F79EAB8DAB8BA99CA901979CAB06
:1001A0008BAB8BA99CA9892B69F714C06FA578A983
:1001B00089A99AA90E949305DC01CB019CAB8BAB6A
:1001C0008BA99CA998AF8FAB8FA998AD0197F1F738
:1001D00098AF8FAB6FEF80E00E94C50340E061E015
:1001E00080E00E94980241E060E081E00E94980275
:1001F00040E061E081E00E94980240E062E081E03E
:100200000E94980240E063E081E00E94980280E052
:1002100090E0A0EAB0E48D839E83AF83B88720E0AE
:1002200030E04AE753E46D817E818F8198850E949A
:100230003C06DC01CB018DA39EA3AFA3B8A720E0B1
:1002400030E040E85FE36DA17EA18FA198A50E94F8
:100250008E0588232CF481E090E09AA789A73FC0FF
:1002600020E03FEF4FE757E46DA17EA18FA198A555
:100270000E94370618164CF520E030E040E251E4C9
:100280006D817E818F8198850E943C06DC01CB01C7
:10029000BC01CD010E949305DC01CB019AA789A77F
:1002A0000FC089E190E09CA78BA78BA59CA5019727
:1002B000F1F79CA78BA789A59AA501979AA789A76B
:1002C00089A59AA5892B69F714C06DA17EA18FA17C
:1002D00098A50E949305DC01CB019AA789A789A55F
:1002E0009AA59EA78DA78DA59EA50197F1F79EA71C
:1002F0008DA76FEF80E00E94C50340E062E080E0E0
:100300000E94980240E060E081E00E94980241E093
:1003100061E081E00E94980240E062E081E00E949A
:10032000980240E063E081E00E94980280E090E063
:10033000A0EAB0E489879A87AB87BC8720E030E0E9
:100340004AE753E469857A858B859C850E943C0643
:10035000DC01CB018B8F9C8FAD8FBE8F20E030E016
:1003600040E85FE36B8D7C8D8D8D9E8D0E948E05A8
:1003700088232CF481E090E098A38F8F3FC020E089
:100380003FEF4FE757E46B8D7C8D8D8D9E8D0E94E6
:10039000370618164CF520E030E040E251E469855C
:1003A0007A858B859C850E943C06DC01CB01BC01D3
:1003B000CD010E949305DC01CB0198A38F8F0FC064
:1003C00089E190E09AA389A389A19AA10197F1F705
:1003D0009AA389A38F8D98A1019798A38F8F8F8D52
:1003E00098A1892B69F714C06B8D7C8D8D8D9E8DA6
:1003F0000E949305DC01CB0198A38F8F8F8D98A16C
:100400009CA38BA38BA19CA10197F1F79CA38BA329
:100410006FEF80E00E94C50340E063E080E00E944F
:10042000980241E060E081E00E94980241E061E0D2
:1004300081E00E94980240E062E081E00E94980220
:1004400040E063E081E00E94980280E090E0A0EA52
:10045000B0E48D879E87AF87B88B20E030E04AE715
:1004600053E46D857E858F8598890E943C06DC016A
:10047000CB01898B9A8BAB8BBC8B20E030E040E8C2
:100480005FE369897A898B899C890E948E0588231C
:100490002CF481E090E09E8B8D8B3FC020E03FEFFD
:1004A0004FE757E469897A898B899C890E943706CE
:1004B00018164CF520E030E040E251E46D857E8571
:1004C0008F8598890E943C06DC01CB01BC01CD01DF
:1004D0000E949305DC01CB019E8B8D8B0FC089E1BF
:1004E00090E0988F8F8B8F89988D0197F1F7988F77
:1004F0008F8B8D899E8901979E8B8D8B8D899E898F
:10050000892B69F714C069897A898B899C890E9433
:100510009305DC01CB019E8B8D8B8D899E899A8FF3
:10052000898F898D9A8D0197F1F79A8F898FC3CD25
:10053000CF93DF9300D01F92CDB7DEB789836A8354
:100540004B838981843008F0DFC08A81883008F0CD
:10055000DBC08B81882309F06CC08981882F90E0F3
:100560008130910519F1823091051CF4892B41F0FD
:10057000CBC08230910581F1039709F443C0C4C018
:100580008BE390E02BE330E0F9012081622F2A8198
:10059000422F50E021E030E002C0220F331F4A9585
:1005A000E2F720952623FC012083AEC088E390E08B
:1005B00028E330E0F9012081622F2A81422F50E0A8
:1005C00021E030E002C0220F331F4A95E2F7209568
:1005D0002623FC01208398C085E390E025E330E0EA
:1005E000F9012081622F2A81422F50E021E030E082
:1005F00002C0220F331F4A95E2F720952623FC0103
:10060000208382C082E390E022E330E0F901208180
:10061000622F2A81422F50E021E030E002C0220FF9
:10062000331F4A95E2F720952623FC012083000022
:100630006BC08B81813009F067C08981882F90E081
:100640008130910511F1823091051CF4892B41F024
:100650005BC08230910571F1039709F440C054C02A
:100660008BE390E02BE330E0F9012081622F2A81B7
:10067000422F50E021E030E002C0220F331F4A95A4
:10068000E2F7262BFC0120833FC088E390E028E3BB
:1006900030E0F9012081622F2A81422F50E021E0D1
:1006A00030E002C0220F331F4A95E2F7262BFC01EF
:1006B00020832AC085E390E025E330E0F901208122
:1006C000622F2A81422F50E021E030E002C0220F49
:1006D000331F4A95E2F7262BFC01208315C082E3E5
:1006E00090E022E330E0F9012081622F2A81422F3D
:1006F00050E021E030E002C0220F331F4A95E2F7BC
:10070000262BFC012083000000000F900F900F901B
:10071000DF91CF910895CF93DF9300D0CDB7DEB7AF
:1007200089836A838981843050F58981882F90E09C
:100730008130910591F0823091051CF4892B39F0BC
:100740001EC08230910579F0039799F018C08AE3B2
:1007500090E02A81FC01208312C087E390E02A8187
:10076000FC0120830CC084E390E02A81FC012083FB
:1007700006C081E390E02A81FC0120830000000094
:100780000F900F90DF91CF910895CF93DF9300D01A
:10079000CDB7DEB789836A838981843050F589813A
:1007A000882F90E08130910591F0823091051CF402
:1007B000892B39F01EC08230910579F0039799F0AA
:1007C00018C08BE390E02A81FC01208312C088E3EB
:1007D00090E02A81FC0120830CC085E390E02A810F
:1007E000FC01208306C082E390E02A81FC01208383
:1007F000000000000F900F90DF91CF9108951F929D
:100800000F9200905F000F9211242F933F934F930C
:100810005F936F937F938F939F93AF93BF93EF9368
:10082000FF93CF93DF93CDB7DEB7809160009091B7
:100830006100FC0109950000DF91CF91FF91EF91DC
:10084000BF91AF919F918F917F916F915F914F91E8
:100850003F912F910F9000925F000F901F9018957D
:100860001F920F9200905F000F9211242F933F93DD
:100870004F935F936F937F938F939F93AF93BF93A8
:10088000EF93FF93CF93DF93CDB7DEB780916200F4
:1008900090916300FC0109950000DF91CF91FF91D9
:1008A000EF91BF91AF919F918F917F916F915F91E8
:1008B0004F913F912F910F9000925F000F901F90EA
:1008C00018951F920F9200905F000F9211242F93A2
:1008D0003F934F935F936F937F938F939F93AF93C8
:1008E000BF93EF93FF93CF93DF93CDB7DEB78091A4
:1008F000640090916500FC0109950000DF91CF91A3
:10090000FF91EF91BF91AF919F918F917F916F91E7
:100910005F914F913F912F910F9000925F000F9048
:100920001F9018951F920F9200905F000F92112454
:100930002F933F934F935F936F937F938F939F93E7
:10094000AF93BF93EF93FF93CF93DF93CDB7DEB712
:100950008091660090916700892B31F0809166004C
:1009600090916700FC0109950000DF91CF91FF9104
:10097000EF91BF91AF919F918F917F916F915F9117
:100980004F913F912F910F9000925F000F901F9019
:1009900018951F920F9200905F000F9211242F93D1
:1009A0003F934F935F936F937F938F939F93AF93F7
:1009B000BF93EF93FF93CF93DF93CDB7DEB78091D3
:1009C000680090916900892B31F0809168009091C6
:1009D0006900FC0109950000DF91CF91FF91EF9133
:1009E000BF91AF919F918F917F916F915F914F9147
:1009F0003F912F910F9000925F000F901F901895DC
:100A0000CF93DF931F92CDB7DEB789838CE290E05E
:100A10002981FC01208300000F90DF91CF91089580
:100A20001F920F9200905F000F9211242F933F931B
:100A30004F935F936F937F938F939F93AF93BF93E6
:100A4000EF93FF93CF93DF93CDB7DEB780916B0029
:100A500090916C00892B31F080916B0090916C002B
:100A6000FC0109950000DF91CF91FF91EF91BF91BB
:100A7000AF919F918F917F916F915F914F913F9136
:100A80002F910F9000925F000F901F9018951F926A
:100A90000F9200905F000F9211242F933F934F937A
:100AA0005F936F937F938F939F93AF93BF93EF93D6
:100AB000FF93CF93DF93CDB7DEB780916A008F5F4E
:100AC00080936A0080916A00882F90E083599F4F3D
:100AD000FC018081882359F080916A00882F90E082
:100AE00083599F4FFC0180810E94000502C0109233
:100AF0006A000000DF91CF91FF91EF91BF91AF911C
:100B00009F918F917F916F915F914F913F912F9125
:100B10000F9000925F000F901F9018950E94C205E1
:100B200008F481E008950E94160688F09F5798F017
:100B3000B92F9927B751B0F0E1F0660F771F881FE2
:100B4000991F1AF0BA95C9F714C0B13091F00E94FC
:100B50003006B1E008950C943006672F782F88276F
:100B6000B85F39F0B93FCCF3869577956795B39523
:100B7000D9F73EF490958095709561957F4F8F4F92
:100B80009F4F0895990F0008550FAA0BE0E8FEEF5C
:100B900016161706E807F907C0F012161306E40741
:100BA000F50798F0621B730B840B950B39F40A263A
:100BB00061F0232B242B252B21F408950A2609F418
:100BC000A140A6958FEF811D811D089597F99F671C
:100BD00080E870E060E008959FEF80EC08950024C5
:100BE0000A941616170618060906089500240A9492
:100BF00012161306140605060895092E0394000C18
:100C000011F4882352F0BB0F40F4BF2B11F460FFA6
:100C100004C06F5F7F4F8F4F9F4F089557FD9058CF
:100C2000440F551F59F05F3F71F04795880F97FBB0
:100C3000991F61F09F3F79F087950895121613066A
:100C40001406551FF2CF4695F1DF08C01616170699
:100C50001806991FF1CF86957105610508940895CE
:100C6000E894BB2766277727CB0197F908950E9460
:100C7000C20508F48FEF08950E944F060C94FD05FD
:100C80000E94EF0538F00E94F60520F0952311F040
:100C90000C94E6050C94EC0511240C9431060E948A
:100CA0000E0670F3959FC1F3950F50E0551F629F9C
:100CB000F001729FBB27F00DB11D639FAA27F00DB5
:100CC000B11DAA1F649F6627B00DA11D661F829FDC
:100CD0002227B00DA11D621F739FB00DA11D621FC1
:100CE000839FA00D611D221F749F3327A00D611DDE
:100CF000231F849F600D211D822F762F6A2F1124C0
:100D00009F5750409AF0F1F088234AF0EE0FFF1FF2
:100D1000BB1F661F771F881F91505040A9F79E3F49
:100D2000510580F00C94E6050C9431065F3FE4F326
:100D3000983ED4F3869577956795B795F795E7959F
:100D40009F5FC1F7FE2B880F911D9695879597F9A8
:060D50000895F894FFCFA6
:00000001FF
